{
  "contractName": "tokenSale",
  "abi": [
    {
      "inputs": [
        {
          "internalType": "contract token1",
          "name": "_tokenContract",
          "type": "address"
        }
      ],
      "stateMutability": "nonpayable",
      "type": "constructor"
    },
    {
      "inputs": [],
      "name": "admin",
      "outputs": [
        {
          "internalType": "address",
          "name": "",
          "type": "address"
        }
      ],
      "stateMutability": "view",
      "type": "function"
    },
    {
      "inputs": [],
      "name": "token1Contract",
      "outputs": [
        {
          "internalType": "contract token1",
          "name": "",
          "type": "address"
        }
      ],
      "stateMutability": "view",
      "type": "function"
    }
  ],
  "bytecode": "0x608060405234801561001057600080fd5b5060405161031d38038061031d833981810160405281019061003291906100ce565b336000806101000a81548173ffffffffffffffffffffffffffffffffffffffff021916908373ffffffffffffffffffffffffffffffffffffffff16021790555080600160006101000a81548173ffffffffffffffffffffffffffffffffffffffff021916908373ffffffffffffffffffffffffffffffffffffffff1602179055505061015b565b6000815190506100c881610144565b92915050565b6000602082840312156100e4576100e361013f565b5b60006100f2848285016100b9565b91505092915050565b60006101068261011f565b9050919050565b6000610118826100fb565b9050919050565b600073ffffffffffffffffffffffffffffffffffffffff82169050919050565b600080fd5b61014d8161010d565b811461015857600080fd5b50565b6101b38061016a6000396000f3fe608060405234801561001057600080fd5b50600436106100365760003560e01c8063d54880481461003b578063f851a44014610059575b600080fd5b610043610077565b60405161005091906100fa565b60405180910390f35b61006161009d565b60405161006e91906100df565b60405180910390f35b600160009054906101000a900473ffffffffffffffffffffffffffffffffffffffff1681565b60008054906101000a900473ffffffffffffffffffffffffffffffffffffffff1681565b6100ca81610115565b82525050565b6100d981610147565b82525050565b60006020820190506100f460008301846100c1565b92915050565b600060208201905061010f60008301846100d0565b92915050565b600061012082610127565b9050919050565b600073ffffffffffffffffffffffffffffffffffffffff82169050919050565b600061015282610159565b9050919050565b60006101648261016b565b9050919050565b600061017682610127565b905091905056fea264697066735822122033a16ea31f5062ab1dae24c8e4d3520626975814f978308f5fe21800113978dd64736f6c63430008070033",
  "immutableReferences": {},
  "source": "pragma solidity ^0.8.7;\n\nimport \"./token1.sol\";\n\ncontract tokenSale {\n\n    address public admin;\n    token1 public token1Contract;\n    constructor (token1 _tokenContract) {\n        admin = msg.sender;\n        token1Contract = _tokenContract;\n    }\n}",
  "sourcePath": "/home/favourite/Desktop/workspace/Me/erc20 dapp university/token_sale/contracts/tokenSale.sol",
  "compiler": {
    "name": "solc",
    "version": "0.8.7+commit.e28d00a7.Emscripten.clang"
  },
  "schemaVersion": "3.4.7",
  "updatedAt": "2022-06-21T01:57:58.584Z",
  "devdoc": {
    "kind": "dev",
    "methods": {},
    "version": 1
  },
  "userdoc": {
    "kind": "user",
    "methods": {},
    "version": 1
  }
}